:100000000C942A000C943F000C943F000C943F0089
:100010000C943F000C943F000C943F000C943F0064
:100020000C943F000C943F000C943F000C943F0054
:100030000C943F000C943F000C943F000C943F0044
:100040000C943F000C943F000C943F000C943F0034
:100050000C943F0011241FBECFE5D8E0DEBFCDBF1A
:1000600010E0A0E6B0E0E8E8F2E002C005900D92F2
:10007000A836B107D9F70E94FA000C9442010C94FB
:100080000000CF93DF93CDB7DEB728970FB6F89473
:10009000DEBF0FBECDBF98E0E0E6F0E0DE011196D6
:1000A00001900D929A95E1F79FEF980F9830A0F587
:1000B0006130C1F422B3FE01E80FF11D81E090E050
:1000C000008002C0880F991F0A94E2F7822B82BB3E
:1000D0002FEF81EE94E0215080409040E1F700C086
:1000E00000001AC0611118C022B3FE01E80FF11D13
:1000F00081E090E0008002C0880F991F0A94E2F727
:100100008095822382BB2FEF81EE94E021508040C6
:100110009040E1F700C0000028960FB6F894DEBFCB
:100120000FBECDBFDF91CF910895CF93DF93CDB7B1
:10013000DEB728970FB6F894DEBF0FBECDBF98E0AC
:10014000E0E6F0E0DE01119601900D929A95E1F75C
:100150009FEF980F9830B8F422B3FE01E80FF11D1D
:1001600081E090E0008002C0880F991F0A94E2F7B6
:10017000822782BB2FEF81EE94E021508040904097
:10018000E1F700C0000028960FB6F894DEBF0FBE5E
:10019000CDBFDF91CF91089581E090E050E140E242
:1001A00030E420E88130910511F425BB0AC082308B
:1001B000910511F435BB09C08330910511F445BB9D
:1001C00004C08430910509F455BB989912C0999BDD
:1001D00002C0049608959A9B02C0089608959B9BBE
:1001E00002C00C960895019685309105D9F68FEFDF
:1001F0009FEF08958FEF81BB0E94CC0061E00E94C9
:100200004100C0E0D0E00E94CC00019721F461E001
:1002100081E00E9441000E94CC00059721F460E03B
:1002200081E00E9441000E94CC00039761F481E0CC
:100230000E9495002FEF80E792E02150804090408F
:10024000E1F700C000000E94CC000297E1F6CB303D
:10025000D1053CF4219612BA61E08C2F0E94410036
:1002600007C012BA61E081E00E944100C1E0D0E025
:100270002FEF80E792E0215080409040E1F700C0EE
:080280000000C1CFF894FFCF8C
:08028800000102030405060752
:00000001FF
